:040000005AEF00F0C3
:100008005B82FACF01F0FBCF02F0D9CF03F0DACF51
:1000180004F00E01BDBBC5AB03D00CECAFF03CD077
:10002800F2AC3AD0C0BDC8AD0BD001D835D0050070
:10003800FA6E01018051FD6E8151FE6E825129D008
:10004800C0BFC8AF0BD001D827D00500FA6E010198
:100058007D51FD6E7E51FE6E7F511BD0C0B9C8A97F
:100068000BD001D819D00500FA6E01018F51FD6E31
:100078009051FE6E91510DD0C0BBC8AB0DD001D8C8
:100088000BD00500FA6E01018C51FD6E8D51FE6E8C
:100098008E51FF6EFA50120004C0DAFF03C0D9FF78
:1000A80002C0FBFF01C0FAFF5B92110009EFA3F049
:10F2E60000BE62011462010662012E4B01605001EC
:10F2F600526201725401B66201AE6201A662019EBB
:10F3060062019662018E62018662017E6201CA57BF
:10F31600011F1C1F1E1F1E1F1F1E1F1E1F00040075
:10F3260000001000000010000000100000000400A3
:10F3360000000400000004000000040000000400B7
:10F34600000004000000C0070001409F00F84EFCCA
:10F3560020FC30FC107C20404E714E0027724E631C
:10F36600020E0D0C0B0A04FA4FF90007FFFA43FAD6
:10F376000480610002E0610003F8B03C0002660010
:10F386000038203C000005A841F90007C04443F9B5
:10F39600000F800012D851C8FFFC4FF9000FBFFEC6
:10F3A600247C000F7FFF4EF9000F800043FA04D340
:10F3B600610002A26000002AB03C00016600001451
:10F3C60043FA04B96100028E247C0007BFFF600087
:10F3D600001043FA04A16100027C247C0001BFFFF7
:10F3E600103A040AB03C00016700000E43FA04B567
:10F3F600610002626000000A43FA048E6100025650
:10F4060043FA041A6100024E6100032E4285610030
:10F41600023061000260B03C0053670000587A0376
:10F426006000002CB03C000A66000040700D6100D0
:10F436000244600000366100020861000238B03CF8
:10F44600000D66E0700A6100022C4A0567C0BA3CEE
:10F45600000167000240BA3C000267000248BA3C5D
:10F46600000367000250600002E8B03C00536700EA
:10F47600000460C2610001CA610001FAB03C0030BC
:10F4860067B4B03C00316700001CB03C0032670036
:10F49600005CB03C0035679EB03C0038670000ACAD
:10F4A600600001E24284740161000128D80136013E
:10F4B600594374036100011CD801E059D801E05991
:10F4C600204174016100010CD8011081B218670057
:10F4D60000047A0151CBFFEC46047401610000F48C
:10F4E600B8016700FF527A026000FF4C4284343C48
:10F4F6000001610000DED80136015B43343C0005A3
:10F50600610000D0D801E099D801E099D801E099CE
:10F51600E0992041343C0001610000B8D801610047
:10F5260001F01081B218670000061A3C000151CBA9
:10F53600FFE44604343C000161000098B80167000E
:10F54600FEF61A3C00026000FEEE4284343C0001E6
:10F5560061000080D80136015B43343C0005610040
:10F566000072D801E099D801E099D801E099E099B4
:10F5760020414604343C000161000058B801670090
:10F58600000A1A3C00026000FEAE43FA02AB6100BC
:10F5960000C443FA02C2610000BC6100019C43FA48
:10F5A60002CF610000B043FA028F610000A843FA5F
:10F5B6000291610000A02C086100014243FA022F6B
:10F5C600610000926100014A43FA0223610000864D
:10F5D6004ED04281616A6100009C6118B03C00FF18
:10F5E600660000087A036000FE66E989D20051CA07
:10F5F600FFE44E75B03C00666200002AB03C006035
:10F6060062000038B03C00466200001AB03C004080
:10F6160062000018B03C00396200000AB03C002FBE
:10F626006200001070FF60000016040000376000E2
:10F63600000E0400003060000006040000574E75FE
:10F646001039000FFFFE0800000267F41039000FA2
:10F65600FFFD4E752F001019B03C00006700001228
:10F6660013FC0001000FFFFD13C0000FFFFC60E656
:10F67600201F4E7513FC0001000FFFFD13C0000F85
:10F68600FFFC4E7543FA01B161CA43FA026D61C4CB
:10F69600600000BE43FA01A161BA43FA027661B482
:10F6A600600000AE43FA019161AA43FA028161A4A7
:10F6B6006000009E43FA0181619A43FA02836194D5
:10F6C6006000008E0247000FBE3C00096500000482
:10F6D6005E070647003013FC0001000FFFFD13C74D
:10F6E600000FFFFC4E751E06E81F61D81E0661D48A
:10F6F6004E75E09E61F0E19E61EC4E75484661E60E
:10F70600484661EE4E75484661E8484661E44E75E6
:10F71600B1CA620000044E7543FA011D6100FF364E
:10F7260043FA019C6100FF2E2C0861D043FA00BF0A
:10F736006100FF226000001A1039000FFFFE08006A
:10F7460000026700000A1039000FFFFD60EA4E75DF
:10F7560043FA017F6100FEFE23FC00000001000069
:10F76600002023FC000000010000000C4E72070080
:10F776001039000FFFFE080000036600003A41FA48
:10F78600006C421013FC0055000FBFF01039000F3B
:10F79600BFF0B03C00556600001E13FC00AA000F27
:10F7A600BFF01039000FBFF0B03C00AA6600000899
:10F7B600103C00024E7513FC00550001AFF01039E5
:10F7C6000007AFF0B03C00556600001C13FC00AA11
:10F7D6000001AFF010390007AFF0B03C00AA660098
:10F7E600000642004E75103C00014E75010D0A00E0
:10F7F600734C6F6164202D20532D7265636F7264A4
:10F80600204C6F61646572202D20533138303232BE
:10F81600312D523135303532310D0A005761697458
:10F82600696E6720696E7075742073747265616D98
:10F836002E2E2E0D0A0A000D0A734C6F61643A20B3
:10F84600005374617274696E6720416464726573F3
:10F85600733A20307800466C757368696E67206964
:10F866006E707574206275666665722E2E2E002087
:10F87600646F6E65003132384B42003531324B428F
:10F8860000313032344B4200202D204C6974652003
:10F89600485720636F6E66696775726174696F6E2B
:10F8A6000D0A00202D2046756C6C20485720636F8A
:10F8B6006E66696775726174696F6E0D0A00496CD0
:10F8C6006C6567616C20416464726573732030787F
:10F8D60000734C6F61643A204C6F616465722061FD
:10F8E600626F72746564202D2053797374656D2080
:10F8F60068616C7465640D0A00496C6C6567616CBF
:10F9060020532D7265636F72642074797065210DC2
:10F916000A0052414D2077726974652076657269D6
:10F926006679206661696C6564210D0A0043686525
:10F93600636B73756D206572726F72210D0A0049D3
:10F946006C6C6567616C2063686172616374657273
:10F95600210D0A00466562203138203230323500EA
:10F9660032323A32323A3237000D0A0A36386B2DC5
:10F976004D4243202D20413039313032302D523125
:10F9860034303232310D0A494F53202D20492F4F42
:10F996002053756273797374656D202D205333314E
:10F9A600303132312D523233313032310D0A0A00C4
:10F9B6000D0A507265737320435220746F20616381
:10F9C600636570742C2045534320746F20657869F5
:10F9D60074206F7220616E79206F74686572206B77
:10F9E600657920746F206368616E67650D0A0A0089
:10F9F6004368616E6765642073706565647320771C
:10FA0600696C6C20626520656666656374697665F7
:10FA1600206166746572206E657874207265626F07
:10FA26006F74210D0A0A004D6F646966696564206A
:10FA360031382F30322F32303235206279205068FB
:10FA46002E526F65687220666F7220534B2A444FA0
:10FA56005320737570706F72740D0A0A000D0A5088
:10FA66007265737320542F5520746F20696E63720C
:10FA7600656D656E74202B31302F2B31206F72200F
:10FA8600435220746F206163636570740D0A000D24
:10FA96000A494F533A2053656C65637420626F6F51
:10FAA60074206D6F6465206F722073797374656D51
:10FAB60020706172616D65746572733A0D0A000A91
:10FAC6000D494F533A2043505520627573206661A5
:10FAD60074616C206572726F7220636F64653A2080
:10FAE6002575202D2041626F727465640A0D0049E8
:10FAF6004F533A204175746F626F6F74206C6F615B
:10FB0600642030782530356C78202D206578656343
:10FB16002030782530356C78200A0D00494F533A4D
:10FB260020436865636B20534420616E64207072C5
:10FB36006573732061206B657920746F2072657020
:10FB46006561740D0A0A000D0A0A494F533A2042AC
:10FB5600617564207265636F76657279202D205019
:10FB66006C65617365207265626F6F74206E6F7766
:10FB760021000A446F20796F752077616E742073B7
:10FB860065742052544320617420494F5320636F9B
:10FB96006D70696C652074696D65202800494F5346
:10FBA6003A20525443204453333233312074656D26
:10FBB60070657261747572652073656E736F723AE3
:10FBC600202575430D0A00494F533A203638303008
:10FBD60038204350552069732072756E6E696E67C2
:10FBE6002066726F6D206E6F770A0A0D00494F53BB
:10FBF6003A204C69746520485720636F6E666967C2
:10FC060075726174696F6E2064657465637465648A
:10FC16000A0D00494F533A2046756C6C2048572010
:10FC2600636F6E66696775726174696F6E2064656D
:10FC36007465637465640A0D00494F533A20525443
:10FC4600432073657420617420636F6D70696C6501
:10FC56002074696D65202D204E6F773A20000D0ABD
:10FC66000A494F533A20456D7074792066696C6570
:10FC7600202D204C6F61642061626F72746564216F
:10FC86000020363A204368616E67652073657269A5
:10FC9600616C20706F7274732073706565640D0AF1
:10FCA60000494F533A20466F756E642052544320E4
:10FCB600445333323331204D6F64756C6520280010
:10FCC6000D0A494F533A20525443206D616E7561B7
:10FCD6006C2073657474696E673A0D0A00494F5358
:10FCE6003A2052544320646174652F74696D65200F
:10FCF6007570646174656420280020373A20436873
:10FD0600616E67652043502F4D204175746F65788D
:10FD1600656320282D3E0020383A204368616E67CF
:10FD260065205254432074696D652F646174650DB6
:10FD36000A00494F533A2052544320636C6F636B59
:10FD4600206661696C757265210D0A00494F533A48
:10FD5600204C6F6164696E6720626F6F74207072E9
:10FD66006F6772616D0020323A20456E68616E637E
:10FD760065642036384B2042617369630D0A004979
:10FD86004F533A20466F756E6420475045204F709A
:10FD960074696F6E0D0A00494F533A2043502F4D38
:10FDA600204175746F6578656320697320000D20A6
:10FDB600202020202020202020202020202020203D
:10FDC600202000456E74657220796F757220636815
:10FDD6006F696365203E00202020202020202020FF
:10FDE60020202020202020200D0020343A204C6F97
:10FDF6006164204F532066726F6D2000202E2E2ED8
:10FE0600646F6E652020202020200D0A000D0A490F
:10FE16004F533A205344206572726F7220000D20B2
:10FE26002D3E53657269616C2025753A200020309D
:10FE36003A204E6F206368616E6765202800203384
:10FE46003A204175746F626F6F740D0A000D0A20B7
:10FE5600353A204368616E67652000494F533A2062
:10FE660043757272656E7420004E4F5F46494C456D
:10FE760053595354454D004155544F424F4F542EFC
:10FE860042494E004155544F424F4F542E41445221
:10FE96000020313A20734C6F61640D0A005365638C
:10FEA6006F6E6473202D3E20004D696E7574657308
:10FEB600202D3E20004E4F545F454E41424C454456
:10FEC600004469736B2053657420257500293F2013
:10FED6005B592F4E5D203E004E4F545F4F50454EAE
:10FEE6004544004542415349432E42494E00206F46
:10FEF6007065726174696F6E00202D2046696C65AD
:10FF06003A20004D6F6E7468202D3E2000486F75B4
:10FF16007273202D3E20000D20446179202D3E2055
:10FF26000043504D36382E42494E00534B444F53F2
:10FF36002E42494E004E4F545F52454144590025CA
:10FF46006320204F6B0D0A0059656172202D3E20FB
:10FF5600004449534B5F4552520020646F6E650A58
:10FF66000D004E4F5F46494C4500554E4B4E4F5780
:10FF76004E00286E756C6C290031313532303000F8
:10FF86002575290D0A004F46460D0A0020282573BF
:10FF9600290031393230300035373630300057528B
:10FFA600495445004D4F554E5400290D0A0A004F3D
:10FFB6004E0D0A0025630D0A00206F6E20003132B7
:10FFC600303000323430300039363030000D202DDC
:10FFD6003E0052454144005345454B004F50454E67
:10FFE6000020204F6B002E2E2E00333030004F465F
:0AFFF60046004F4E002F003A0000B5
:020000040001F9
:10000000AAECADF0000E0101706F000E716F000ED2
:10001000726F000E736F320E056E610E066E010E6A
:10002000076EB6ECB0F0F28EF28CCE0E0F01096FB7
:10003000CF0E196F1E6BFD0E266F1EECB1F0000186
:10004000956F9551D8B406D033ECB1F00001FC6B3C
:10005000010E946F8390090E0101FB6F1E0EFA6F63
:10006000E40EE82EFED7FA2FFCD7FB2FFAD70000BC
:100070008380290E0101FB6F960EFA6F7F0EE82E2A
:10008000FED7FA2FFCD7FB2FFAD78DBC03D0010E79
:100090000001936F000E066E0C0E056E32ECB0F090
:1000A0000001896F010E89650AD0000E0A6E0C0EE0
:1000B000096E000E0B6E26ECAEF00001896B000E8F
:1000C000066E0D0E056E32ECB0F000018E6F060E5E
:1000D0008E650AD0060E8E6F000E0A6E0D0E096E2A
:1000E0008EC00BF026ECAEF0000E066E0E0E056E06
:1000F00032ECB0F000018D6F060E8D650AD0060E51
:100100008D6F000E0A6E0E0E096E8DC00BF026EC80
:10011000AEF000018E51B5ECA7F006C005F0066AFE
:1001200005509B6E00018E51B5ECA7F005509A6EFC
:1001300000018D51B5ECA7F006C005F0066A055028
:100140000E01976F00018D51B5ECA7F005500E011F
:10015000966F6F0E486EF90E496EB8ECAFF02D0E2B
:10016000486EFA0E496EB8ECAFF09551D8B407D08E
:10017000F30E486EFB0E496EB8ECAFF006D0190EC8
:10018000486EFC0E496EB8ECAFF0110E0101FB6F2A
:100190003C0EFA6FCB0EE82EFED7FA2FFCD7FB2FC2
:1001A000FAD73DECB0F070EC97F00001836F200EB1
:1001B000BDECABF00009D8A402D0010E856F8551CB
:1001C000D8B406D0850E486EFD0E496EB8ECAFF07F
:1001D0009D0E486EFD0E496EB8ECAFF0000E066E37
:1001E0000B0E056E32ECB0F00101FA6F010EFA65EC
:1001F00008D0000E0A6E0B0E096E000E0B6E26EC78
:10020000AEF0000E066E0B0E056E32ECB0F0000183
:10021000876F8751D8B407D0B50E486EFF0E496E70
:10022000B8ECAFF006D08C0E486EFF0E496EB8ECFD
:10023000AFF0980E3E6E010E3F6E47ECB0F0980E98
:100240003E6E010E3F6E47ECB0F0000E066E0A0ED9
:10025000056E32ECB0F00001926F9305D8B406D071
:10026000030E9265F8D102D09EECACF00001A151D2
:10027000D8A4FAD7950E486EFA0E496EB8ECAFF0D6
:10028000030E92650AD0000E0A6E0A0E096E000E69
:100290000B6E26ECAEF00001926B340E486EFE0E33
:1002A000496EB8ECAFF0860E486EFF0E496E010E37
:1002B00092254A6E4B6A000E4B22B8ECAFF0970EB7
:1002C000486EFE0E496EB8ECAFF06C0E486EFD0E37
:1002D000496EB8ECAFF0440E486EFE0E496EB8ECB5
:1002E000AFF0F00E486EFD0E496EB8ECAFF08951DC
:1002F00067ECAAF0530E486EFE0E496EB8ECAFF0F4
:10030000895167ECAAF0100E486EFE0E496EB8ECEB
:10031000AFF0870E486EFC0E496EB8ECAFF0000EE1
:10032000486EFD0E496EB8ECAFF08751D8A407D0E7
:10033000F80E486EFF0E496EB8ECAFF006D0F40E22
:10034000486EFF0E496EB8ECAFF0880E486EFF0E97
:10035000496EB8ECAFF08351D8B408D01D0E486E8A
:10036000FD0E496EB8ECAFF0380EFA6F100E486E05
:10037000FE0E496EB8ECAFF0C90E486EFD0E496E28
:10038000B8ECAFF04E0E0001B86F4C0EB96F010E15
:10039000BA6F2CEC9DF09EECACF0576E2F0E5764AC
:1003A000F1D757500001FA5DD8A0ECD7450E486E42
:1003B000FF0E496E57C04AF04B6AB8ECAFF025D13A
:1003C000A1ECB0F089C091F000019129010B916F6F
:1003D000D30E486EFF0E496EB8ECAFF0915167EC4A
:1003E000AAF0DD0E486EFD0E496EB8ECAFF002D0FB
:1003F0009EECACF00001A151D8A4FAD7000EB86F62
:10040000000EB96F000EBA6F2CEC9DF09EECACF0B4
:10041000576E0D0E5718D8B404D01B0E5718D8A419
:10042000D3D7290E486EFA0E496EB8ECAFF00D0E18
:100430005718D8A4F7D091C089F0000E0A6E0C0EA0
:10044000096E91C00BF026ECAEF0ECD08F6B010E74
:10045000906F020E906501D0B5D0A1ECB0F0900580
:10046000D8A407D0000E066E0D0E056E32ECB0F06B
:1004700006D0000E066E0E0E056E32ECB0F00001D6
:10048000916F91070001912B060E916501D0916B40
:10049000B40E486EFD0E496EB8ECAFF0240E486EF7
:1004A000FE0E496E90C04AF04B6AB8ECAFF031D006
:1004B000F00E486EFF0E496EB8ECAFF043D0C40E9C
:1004C000486EFF0E496EB8ECAFF03CD0C90E486ED6
:1004D000FF0E496EB8ECAFF035D0CE0E486EFF0E71
:1004E000496EB8ECAFF02ED0980E486EFF0E496EF4
:1004F000B8ECAFF027D09E0E486EFF0E496EB8ECF8
:10050000AFF020D07F0E486EFF0E496EB8ECAFF012
:1005100019D09151000AD8B4CBD7010AD8B4CFD79B
:10052000030AD8B4D3D7010AD8B4D7D7070AD8B4A6
:10053000DBD7010AD8B4DFD7030AD8B4E3D702D097
:100540009EECACF00001A151D8A4FAD7000EB86F10
:10055000000EB96F000EBA6F2CEC9DF09EECACF063
:10056000576E0D0E5718D8B404D01B0E5718D8A4C8
:1005700089D70D0E5718D8A41DD0E70E486EFF0E70
:10058000496EB8ECAFF09005D8A409D0000E0A6E01
:100590000D0E096E91C00BF026ECAEF008D0000EE7
:1005A0000A6E0E0E096E91C00BF026ECAEF0000143
:1005B0008F258F6F2B0E486EFA0E496EB8ECAFF098
:1005C000902B47D7100E486EFE0E496EB8ECAFF078
:1005D0008F51D8B427D0F60E486EF90E496EB8EC9C
:1005E000AFF020D08751D8A402D0010E01D0000E68
:1005F000876F000E0A6E0B0E096E87C00BF026EC9B
:10060000AEF010D0F9EC90F00DD05750350AD8B4B8
:10061000D7D6030AD8B41AD7010AD8B4E3D70F0A39
:10062000D8B4F0D7839E5750CF0F0001926F040EBD
:10063000926109D0000E0A6E0A0E096E92C00BF08C
:1006400026ECAEF008D0000E066E0A0E056E32ECF7
:10065000B0F00001926F030E00019219D8A4D4D01B
:10066000610E486EFE0E496EB8ECAFF0895167EC32
:10067000AAF0100E486EFE0E496EB8ECAFF0C4D072
:100680006E0E0101966FF30E976FEC0E686F050EFC
:10069000696F000E6A6F000E6B6F000E0001606FD5
:1006A000C00E616F070E626F000E636F000E646F05
:1006B000C00E656F070E10D0E90E7D6FFE0E7E6FC7
:1006C000000E606F040E616F000E626F000E636FAC
:1006D000000E646F040E8DD0666F000E676FA1D0A0
:1006E000000E606F040E616F000E626F000E636F8C
:1006F000000E646F040E656F000E666F000E676F6C
:100700008A0E7D6FFE0E7E6F8A0EF26FFE0EF36F05
:10071000A8ECB0F00009D8A43AD0A00E446E050EA3
:10072000456EAB0E466E10ECAEF0AC5104E1070E18
:10073000AB5DD8A02CD0A00E116E050E126EA70EC8
:10074000136E000E156E100E146E010E166E87ECF1
:1007500094F011C060F012C061F013C062F014C0D8
:1007600063F0A7C011F0A8C012F0000E136E000EC7
:10077000156E100E146E010E166E87EC94F011C0FB
:1007800064F012C065F013C066F014C067F0F50E97
:10079000486EFA0E496E60C04AF061C04BF062C00C
:1007A0004CF063C04DF064C04EF065C04FF066C0C1
:1007B00050F067C051F0B8ECAFF07D0E7D6FFE0ECB
:1007C0007E6F2FD0270E7D6FFF0E7E6F010EF86FAC
:1007D00077D7310E7D6FFF0E7E6FF86B000E606F66
:1007E000100E616F000E626F000E636F000E646F7B
:1007F000100E656F000E70D78951000AD8B4E2D789
:10080000010AD8B4E6D70DD09251000AD8B438D72F
:10081000010AD8B451D7030AD8B462D7010AD8B4B0
:10082000EBD7520E486EFD0E496EB8ECAFF0925108
:10083000D8B410D0920E486EFF0E496E7DC04AF0BB
:100840007EC04BF0B8ECAFF07DC0F4F07EC0F5F0A8
:10085000EDECA1F0EC0E486EFF0E496EB8ECAFF077
:10086000000E44ECA9F0000E44ECA9F0100E44EC8C
:10087000A9F0000E44ECA9F0000E44ECA9F0000E23
:1008800044ECA9F0040E44ECA9F0000E44ECA9F0ED
:10089000200E44ECA9F07C0E44ECA9F0000E44ECD0
:1008A000A9F0000E44ECA9F0000E44ECA9F0000EF3
:1008B00044ECA9F0200E44ECA9F0FC0E44ECA9F0A5
:1008C000000E44ECA9F0000E44ECA9F0100E44EC2C
:1008D000A9F0000E44ECA9F0200E44ECA9F0FC0EA7
:1008E00044ECA9F0DAECA9F00001675144ECA9F05E
:1008F0000001665144ECA9F00001655144ECA9F0F7
:100900000001645144ECA9F0200E44ECA9F07C0EE7
:1009100044ECA9F0DAECA9F00001635144ECA9F031
:100920000001625144ECA9F00001615144ECA9F0CE
:100930000001605144ECA9F000019251D8B478D084
:10094000A00E446E050E456EAB0E466E10ECAEF07A
:100950008A6FAB51AC11D8A4F76B000E746F000E08
:10096000736F37D0200E44ECA9F0FC0E44ECA9F0D4
:10097000DAECA9F0A00E00017325D96E050E7421E2
:10098000DA6EDF5044ECA9F0A10E00017325D96E98
:10099000050E7421DA6EDF5044ECA9F0A20E0001BE
:1009A0007325D96E050E7421DA6EDF5044ECA9F080
:1009B000A30E00017325D96E050E7421DA6EDF5087
:1009C00044ECA9F0040E00017325736F000E74212E
:1009D000746FAB51735DAC517459D8A0C3D7020E7C
:1009E000AC19AB11D8A403D08A51D8B4A9D78A5175
:1009F000D8B411D08AC053F07DC054F07EC055F0F9
:100A0000020E46EC9BF055ECAFF0000E4D6E000E62
:100A10004C6EDFECADF08A51D8A492D7F751D8B420
:100A20003ED0640E486EFC0E496EB8ECAFF0FFD7B6
:100A3000000E01016C6F000E6D6F000E6E6F000EE8
:100A40006F6F23D0100E44ECA9F0FC0E44ECA9F01B
:100A5000DAECA9F0000E44ECA9F001016C519625E6
:100A6000FA6F6D519721FB6FFAC1F6FFFBC1F7FFDB
:100A7000000EF86E0800F55044ECA9F0010E0101DB
:100A80006C27000E6D236E236F2368516C5D6951D6
:100A90006D596A516E596B516F59D8A0D3D74E0E0C
:100AA00044ECA9F0720E44ECA9F0DAECA9F0270EA0
:100AB00044ECA9F0000E44ECA9F0600E486EFF0E65
:100AC000496EB8ECAFF0869286900E01285102096B
:100AD000286F150E0101FA6FC60EE82EFED7FA2F09
:100AE000FCD7000086828680CD0E486EFB0E496ED4
:100AF000B8ECAFF00E0127ABE4D08CB237D08EA2A9
:100B000004D00101FA6BFA2B02D00101FA6B8EA41A
:100B100002D0010E01D0000E020DF350FA250001A3
:100B2000986F8FCF97F00AD0DCEC8AF011D097C085
:100B3000FDF0000E806F000E7F6F0AD09851000A02
:100B4000D8B4F2D7010AD8B4F2D7030AD8A4010A5C
:100B5000F29E0E0132518009326F00000000000049
:100B60000E0132517F0B326FF28EABD08DB687D033
:100B70008EA204D00101FA6BFA2B02D00101FA6BAC
:100B80008EA402D0010E01D0000E020DF350FA2502
:100B90000001986F976B4BD014EC96F055D0976985
:100BA000A151D8B404D09EECACF00001976F8684BC
:100BB0004BD09A51D8B404D00101FA6BFA2B02D071
:100BC0000101FA6B050EFB6FD890FA37FB2FFCD7AB
:100BD000F8C0FCF1FC3BF00EFC1795C0FDF1D8907D
:100BE000FD37D890FD37D890FD370001A151D8B41A
:100BF00004D00101FE6BFE2B02D00101FE6BD890E8
:100C0000FE37D890FE370001835183250101FE1184
:100C1000FD11FC11FA110001871107D097699A5153
:100C2000D8B412D0BFECACF00001976F0DD0985142
:100C3000000AD8B4B1D7010AD8B4B1D7030AD8B4DE
:100C4000B8D7010AD8B4EAD7869294B102D082907C
:100C500001D082808A6A97C085FF0E0132518009D7
:100C6000326F0000000000000000000000008A68F1
:100C70000001FCB102D0829001D082801DD0400ED4
:100C80000001976F869294B102D0829001D0828049
:100C90008A6A97C085FF0E0132518009326F0000C9
:100CA000000000000000000000008A680001FCB1A4
:100CB00002D0829001D082800E0132517F0B326FC0
:100CC00086820001A151D8B415D79651D8B412D755
:100CD000869410D7000E00016F6F000E706FC9EC84
:100CE00098F02A6E2AA002D0020E1200000E000117
:100CF000E06F000EE16F000EE26F000EE36FB40EC6
:100D0000236E000E246E000E256E000E266E000E61
:100D1000276E3AECA0F00001E86FE805D8A438D0BF
:100D2000B40E136E146A000E156E000E166E000ED1
:100D3000176E000E186E010E1A6EBE0E196E000EA2
:100D40001C6E100E1B6ECFEC9EF00009D8B402D0C2
:100D5000030E1CD00001B851D8B41AD0BC0E056ED9
:100D6000B1ECA2F005C0E0F006C0E1F007C0E2F08F
:100D700008C0E3F0B40E236EE0C024F0E1C025F01B
:100D8000E2C026F0E3C027F03AECA0F00001E86FE3
:100D9000030EE819D8A402D0010E1200E851D8B40D
:100DA00002D0060E1200B40E136E146AE0C015F0E5
:100DB000E1C016F0E2C017F0E3C018F0000E1A6EA2
:100DC0000D0E196E000E1C6E240E1B6ECFEC9EF0E5
:100DD0000009D8A4E1D7BD0E056EC5ECADF005C085
:100DE000E4F006C0E5F00001E66BE76BE451E511C5
:100DF000E611E711D8A40CD0CB0E056EB1ECA2F031
:100E000005C0E4F006C0E5F007C0E6F008C0E7F072
:100E1000E4C005F0E5C006F0E6C007F0E7C008F062
:100E20000001B751096E0A6A0B6A0C6A15ECABF047
:100E300005C0E4F006C0E5F007C0E6F008C0E7F042
:100E4000B50E056EC5ECADF005500001E0252A6E2B
:100E50000650E1212B6E000EE2212C6E000EE321E4
:100E60002D6E20EE0AF02850D9262950DA222AC009
:100E7000DEFF2BC0DEFF2CC0DEFF2DC0DEFF20EE2C
:100E800002F02850D9262950DA22B4C0DFFFB80E6C
:100E9000056EC5ECADF020EE04F02850D92629509F
:100EA000DA2205C0DEFF06C0DDFFBA0E056EC5EC16
:100EB000ADF005C0D8F006C0D9F00001DA6BDB6BED
:100EC000D851D911DA11DB11D8A40CD0C70E056E98
:100ED000B1ECA2F005C0D8F006C0D9F007C0DAF036
:100EE00008C0DBF020EE04F02850D9262950DA2281
:100EF000DECF2AF0DDCF2BF0040E2C6ED8902B32F3
:100F00002A322C2EFBD72A502D6E2B502E6E2F6A94
:100F1000306AB50E056EC5ECADF00550316E065069
:100F2000326E336A346A311E321E331E341E312A49
:100F3000000E3222332234220001E451315C356E3E
:100F4000E5513258366EE6513358376EE751345812
:100F5000386E2D50355C396E2E5036583A6E2F5003
:100F600037583B6E305038583C6ED85139240C6E8F
:100F7000D9513A200D6EDA513B200E6EDB513C20E8
:100F80000F6E20EE02F02850D9262950DA22DF50C9
:100F90003D6E3D50106E116A126A136AF5ECA6F0B0
:100FA000020E0C240001DC6F000E0D20DD6F000E20
:100FB0000E20DE6F000E0F20DF6F20EE06F02850AF
:100FC000D9262950DA22DCC0DEFFDDC0DEFFDEC01C
:100FD000DEFFDFC0DEFFE86BDF51DE1106E1F80E59
:100FE000DC5D0F0EDD59D8A00BD0DF51DE1108E11A
:100FF000F70EDC5DFF0EDD59D8B002D0020EE86FAF
:10100000DF51DE1106E1F70EDC5DFF0EDD59D8A0E1
:1010100002D0030EE86FE851D8B4C3D628C0D9FF78
:1010200029C0DAFFE8C0DFFF030EE819D8A413D007
:10103000D30E056EB1ECA2F020EE0EF02850D926AA
:101040002950DA2205C0DEFF06C0DEFF07C0DEFF42
:1010500008C0DEFF28D020EE0AF02850D9262950FB
:10106000DA22DECF2AF0DECF2BF0DECF2CF0DECF7F
:101070002DF0E4512A242E6EE5512B202F6EE651DF
:101080002C20306EE7512D20316E20EE0EF02850CE
:10109000D9262950DA222EC0DEFF2FC0DEFF30C055
:1010A000DEFF31C0DEFF20EE0AF02850D92629509D
:1010B000DA22DECF2AF0DECF2BF0DECF2CF0DECF2F
:1010C0002DF020EE04F02850D9262950DA22DECF68
:1010D0002EF0DDCF2FF0040E306ED8902F322E324E
:1010E000302EFBD72E502A24316E2F502B20326EFB
:1010F000000E2C20336E000E2D20346E0001E451C2
:101100003124356EE5513220366EE6513320376E8C
:10111000E7513420386E20EE12F02850D92629509D
:10112000DA2235C0DEFF36C0DEFF37C0DEFF38C052
:10113000DEFF20EE01F02850D9262950DA22DF6A9E
:1011400028C06FF029C070F0000E12003250D96E26
:10115000DA6ADECFF6FFDDCFF7FF000EF86E08008B
:10116000F550250AD8A40ED23250D96EDA6ADE2A9A
:10117000000EDD22000E00016E6F000E6D6F6DC05F
:1011800081F00101926993693D6A1BD0000181835E
:101190003250D96EDA6ADE2A000EDD2212D0010E3C
:1011A0003D6E0FD03250D96EDA6ADECFF6FFDDCF5A
:1011B000F7FF000EF86E0800F550300AD8B4E6D7F5
:1011C000EED73D50D8B4EED732C005F033C006F0AC
:1011D000FAECA4F005C06DF006C06EF000016EAF31
:1011E00005D081816D6D6E1FD8B06E2B3250D96ED7
:1011F000DA6ADECFF6FFDDCFF7FF000EF86E0800EB
:10120000F550630AD8A41ED03250D96EDA6ADE2AAD
:10121000000EDD2233C0D9FF34C0DAFFDF50DF2AF1
:10122000DF2AD96EDA6ADF503E6E30C010F031C06E
:1012300011F03EC012F049ECA5F010C030F011C022
:1012400031F012003250D96EDA6ADECF3FF0DDCFD6
:1012500040F03FC0F6FF40C0F7FF000EF86E0800F8
:10126000F5CF3EF008D03F4A402A13D0690E3E6EBB
:1012700010D03E6A0ED03E506C0AD8B4F4D7020AA1
:10128000D8B4F4D71B0AD8B4F1D70D0AD8B4EED726
:10129000F0D73FC0F6FF40C0F7FF000EF86E080021
:1012A000F550780AD8B432D03FC0F6FF40C0F7FFFF
:1012B000000EF86E0800F550750AD8B427D06FD02C
:1012C00033C0D9FF34C0DAFFDF50DF2ADF2AD96EFE
:1012D000DA6ADECF35F0DDCF36F035C039F036C012
:1012E0003AF03B6A3C6A19D033C0D9FF34C0DAFF08
:1012F000040EDF26DF5CD96EDA6ADECF39F0DECF8E
:101300003AF0DECF3BF0DECF3CF007D03E50690A2A
:10131000D8B4D6D7050AD8B4E7D7010E3F24356E26
:10132000000E4020366E3250D96EDA6A35C0DEFFCC
:1013300036C0DDFF26D030C020F031C021F039C0EA
:1013400022F03AC023F03BC024F03CC025F0C5ECAD
:101350009FF020C030F021C031F0120030C020F0EA
:1013600031C021F039C022F03AC023F03BC024F054
:101370003CC025F0ABECA0F020C030F021C031F033
:1013800012003FC0F6FF40C0F7FF000EF86E0800E5
:10139000F550750AD8B4CFD70D0AD8B4DFD73FC0FF
:1013A000F6FF40C0F7FF000EF86E0800F5506E0A19
:1013B000D8B432D04AD033C0D9FF34C0DAFFDF50BE
:1013C000DF2ADF2AD96EDA6ADECFE1FFDECFE2FF65
:1013D0006BC0E6FF6CC0E7FF26D06BC035F06CC079
:1013E00036F0000E36BEFF0E376E386E33C0D9FFB2
:1013F00034C0DAFFDF50DF2ADF2AD96EDA6ADECFA7
:10140000E1FFDECFE2FF35C0E6FF36C0E6FF37C0C2
:10141000E6FF38C0E7FF07D03E50690AD8B4CBD703
:10142000050AD8B4DAD7010E3F24356E000E4020ED
:10143000366E3250D96EDA6A35C0DEFF36C0DDFF57
:10144000000E316E000E306E12003D6A3250D96EC1
:10145000DA6ADECFF6FFDDCFF7FF000EF86E080088
:10146000F550730AD8A409D03250D96EDA6ADE2A50
:10147000000EDD22010E3D6E40D03250D96EDA6A88
:10148000DECFF6FFDDCFF7FF000EF86E0800F55057
:101490006C0AD8A432D03250D96EDA6ADECF35F079
:1014A000DDCF36F0010E3526000E362235C0F6FFB0
:1014B00036C0F7FF000EF86E0800F5506C0AD8A48D
:1014C0001CD03250D96EDA6ADECF35F0DDCF36F07F
:1014D000020E3526000E362235C0F6FF36C0F7FF65
:1014E000000EF86E0800F550730AD8A406D03250EA
:1014F000D96EDA6A030EDE26BBD73D50D8B418D0B9
:1015000030C010F031C011F033C0D9FF34C0DAFF61
:10151000020EDF26DF5CD96EDA6ADECF12F0DECF94
:1015200013F098EC9CF010C030F011C031F01200B4
:101530003250D96EDA6ADECFF6FFDDCFF7FF000E4C
:10154000F86E0800F550250AD8A415D03250D96E8F
:10155000DA6ADE2A000EDD22000E086E250E076E06
:1015600030C009F031C00AF0AAECA4F0000E316ED0
:10157000010E306E12003250D96EDA6ADE2A000E89
:10158000DD225ED73250D96EDA6ADECFF6FFDDCFCC
:10159000F7FF000EF86E0800F550076E086A30C0BD
:1015A00009F031C00AF0AAECA4F03250D96EDA6A20
:1015B000DE2A000EDD22DAD7EED197A102D0838E8B
:1015C0001200839E120097512EECB1F0120095513B
:1015D000D8A4120097A11200010E966F1200855137
:1015E000D8B412008451D8A41200120E146E97C001
:1015F00015F0200E93ECAAF012008551D8B4120019
:101600008451D8A41200130E146E97C015F0200E4A
:1016100093ECAAF012008551D8B412008451D8A4DA
:101620001200000E146E97C015F0200E93ECAAF075
:1016300012008551D8B412008451D8A41200010EB2
:10164000146E97C015F0200E93ECAAF0120085518D
:10165000D8B412008451D8A412000C0E146E97C096
:1016600015F0200E93ECAAF012008551D8B41200A8
:101670008451D8A412000D0E146E97C015F0200EE0
:1016800093ECAAF01200640E97612AD0A9ECA8F09E
:101690008951300F0101E46F0A0E056E0001975168
:1016A00056ECADF0300F0101E66F0A0E056E000139
:1016B000975156ECADF0F60DF35000019725300F21
:1016C0000101E76F00018651D8A407D0E20EF26F46
:1016D000010EF36FA8ECB0F0866F010EF96F1200E7
:1016E000100E866F12007F518011D8A404D097C0CD
:1016F0007BF07C6B0FD09751F46F7B517B6FF4C004
:101700007CF0020E7C5DD8B002D0866B02D0110E48
:10171000866FFD697F4B802B120097C0B3F0F851A4
:10172000D8B403D0800EB36106D0F851D8A406D047
:101730001F0EB36503D0120E866F1200866B120067
:101740007F518011D8A47CD0F851D8B403D07F0E3B
:10175000B36506D0F851D8A473D0200EB36170D011
:101760008651D8A46DD0F851D8B405D0B341E84221
:101770003F0B886F02D0B3C088F07BC0F4F07CC010
:10178000F5F0050ED890F437F537E82EFBD78851E1
:10179000F411796FF5517A6FF851D8B446D0B3C0CF
:1017A000F4F0030EF417F451800DF3CF75F0F4CF7D
:1017B00076F0010EF66F7751791907E178517A19B1
:1017C000D8A403D0F951D8B4F66BF6C08BF08B5186
:1017D000D8B427D0A9ECA8F08651D8A407D079C0F6
:1017E0004CF07AC04DF0DFECADF0866F8651D8A496
:1017F00009D0A00E446E050E456EAB0E466E10EC81
:10180000AEF0866F79C077F07AC078F08651D8A4B0
:1018100008D0020EAC5DD8B004D0010EF96F130EE3
:10182000866F010E8C6FF96B0BD0000E766F000E79
:10183000756F79C04CF07AC04DF0DFECADF0866F7B
:101840008651D8A43BD0A00E7525D96E050E762101
:10185000DA6E97C0DFFFF851D8B406D080510CE1A2
:101860007F0E7F5DD8B008D0F851D8A427D07F294B
:10187000010E8059D8A022D0F851D8A41ED0A00EB5
:10188000B46F050EB56FA90EB66F95ECABF0866F11
:101890008651D8A406D0020EAA5DD8B002D0130E8D
:1018A000866F8651D8A409D0000EB46F000EB56FB4
:1018B000A90EB66F95ECABF0866FFD697F4B802B60
:1018C000754B762B12009751FEECACF0120085514F
:1018D000D8B41200010E846F9751D8A402D0010E23
:1018E00001D0000E010BB26F120E146EB251B22570
:1018F0000509156E200E93ECAAF0000E146EF80E7A
:10190000156E200E93ECAAF0010E146E000E156EEB
:10191000200E93ECAAF00C0E146EFF0E156E200E26
:1019200093ECAAF0D8800001B235916F120E146EBC
:1019300091C015F0200E93ECAAF00001915104091A
:10194000916F120E146E91C015F0200E93ECAAF058
:1019500012008451D8B41200130E146E97C015F003
:10196000200E93ECAAF00001B251B225FC09916F50
:10197000120E146E91C015F0200E93ECAAF0000127
:1019800091510109916F120E146E91C015F0200E45
:1019900093ECAAF012000001FD51000AD8B40DD654
:1019A000010AD8B410D6030AD8B411D6010AD8B4A3
:1019B00016D6070AD8B421D6010AD8B42CD6030A01
:1019C000D8B437D6010AD8B442D60F0AD8B44DD607
:1019D000010AD8B458D6030AD8B485D6010AD8B4B7
:1019E0009CD6070AD8B4ACD61C0AD8B46CD7010A66
:1019F000D8B46DD7030AD8A41200ABD76FC0C4F017
:101A000070C0C5F0C451C511D8A402D0050E120093
:101A100020EE01F0C451D926C551DA22DFB002D040
:101A2000040E120020EE1AF0C451D926C551DA2254
:101A30003750DE5C3850DE583950DE583A50DE58A8
:101A4000D8B00ED020EE1AF0C451D926C551DA22F2
:101A5000DECF37F0DECF38F0DECF39F0DECF3AF030
:101A600020EE16F0C451D926C551DA22DECFB8F0E7
:101A7000DECFB9F0DECFBAF0DECFBBF020EE16F04D
:101A8000C451D926C551DA22DE6ADE6ADE6ADD6A11
:101A90003750381039103A10D8B4B1D120EE02F0D6
:101AA000C451D926C551DA22DF503B6E3BC03CF011
:101AB0003D6A3E6A3F6A090ED8903C363D363E3656
:101AC0003F36E82EF9D73CC0BCF03DC0BDF03EC06B
:101AD000BEF03FC0BFF0B851B911BA11BB11D8B4B4
:101AE00097D0FF0E37240C6EFF0E38200D6EFF0EC0
:101AF00039200E6EFF0E3A200F6EBCC010F0BDC034
:101B000011F0BEC012F0BFC013F0F5ECA6F00CC08F
:101B10003BF00DC03CF00EC03DF00FC03EF0FF0E9C
:101B20000001B8250C6EFF0EB9210D6EFF0EBA2113
:101B30000E6EFF0EBB210F6EBCC010F0BDC011F0C9
:101B4000BEC012F0BFC013F0F5ECA6F00C503B5C29
:101B50000D503C580E503D580F503E58D8A058D00C
:101B6000FF0E0001BC253B6EFF0EBD213C6EFF0E3B
:101B7000BE213D6EFF0EBF213E6E3B1C3F6E3C1CE6
:101B8000406E3D1C416E3E1C426EFF0EB825436EFA
:101B9000FF0EB921446EFF0EBA21456EFF0EBB2128
:101BA000466E3F504314476E40504414486E4150B7
:101BB0004514496E425046144A6E20EE16F0C45148
:101BC000D926C551DA2247C0DEFF48C0DEFF49C032
:101BD000DEFF4AC0DEFF20EE16F0C451D926C55103
:101BE000DA22DE50375EDE50385ADE50395ADD5088
:101BF0003A5A20EE22F0C451D926C551DA22DECF5E
:101C0000C0F0DECFC1F0DECFC2F0DECFC3F076D0C1
:101C1000000120EE1EF0C451D926C551DA22DECFD4
:101C2000C0F0DECFC1F0DECFC2F0DECFC3F020EED9
:101C300022F0C451D926C551DA22C0C0DEFFC1C08E
:101C4000DEFFC2C0DEFFC3C0DEFF58D0C0C023F03D
:101C5000C1C024F0C2C025F0C3C026F0AFEC99F09B
:101C600023C0C0F024C0C1F025C0C2F026C0C3F01C
:101C70000001C351C211C11104E1020EC05DD8A020
:101C800010D020EE06F0C451D926C551DA22DE501C
:101C9000C05DDE50C159DE50C259DE50C359D8A0D4
:101CA00009D020EE01F0C451D926C551DA22DF6AED
:101CB000010E120020EE22F0C451D926C551DA22BD
:101CC000C0C0DEFFC1C0DEFFC2C0DEFFC3C0DEFF9A
:101CD00020EE16F0C451D926C551DA22BC51DE26B9
:101CE000BD51DE22BE51DE22BF51DE22BC51375E25
:101CF000BD51385ABE51395ABF513A5A3750BC5D5E
:101D00003850BD593950BE593A50BF59D8A09ED706
:101D100020EE16F0C451D926C551DA223750DE26FE
:101D20003850DE223950DE223A50DE22C0C011F097
:101D3000C1C012F0C2C013F0C3C014F050ECA2F046
:101D400011C0B4F012C0B5F013C0B6F014C0B7F0B3
:101D50000001B451B511B611B711D8B4A2D720EE15
:101D600002F0C451D926C551DA22DF503B6EFF0E76
:101D70003B243C6E3D6AFF0E3D223E6A3DBE3E0660
:101D80003E503F6E20EE16F0C451D926C551DA22DE
:101D9000DECF40F0DECF41F0DECF42F0DECF43F0C9
:101DA0000A0E05D0D8904332423241324032E82EFA
:101DB000F9D73C504014446E3D504114456E3E509E
:101DC0004214466E3F504314476EB4514424486E4B
:101DD000B5514520496EB65146204A6EB75147204D
:101DE0004B6E20EE26F0C451D926C551DA2248C0E8
:101DF000DEFF49C0DEFF4AC0DEFF4BC0DEFF000E43
:101E0000120037C044F038C045F06FC055F070C0C4
:101E100056F03B50D96EDA6ADE6ADD6A55505610CC
:101E2000D8A402D0050E120020EE01F05550D9269C
:101E30005650DA22DFB002D0040E120039503A10A8
:101E4000D8A42CD020EE01F05550D9265650DA22D5
:101E5000DFAC1AD0000E136E000E146E000E156E5D
:101E6000000E166E000E176E000E186E49EC9EF0F6
:101E70000009D8B409D020EE01F05550D9265650AB
:101E8000DA22DF6A010E120020EE01F05550D92649
:101E90005650DA22BF0EDF16000E120020EE01F0BF
:101EA0005550D9265650DA22DFBC0ED020EE16F05F
:101EB0005550D9265650DA22000EDE16FE0EDE16DA
:101EC000FF0EDE16FF0EDE1620EE16F05550D92658
:101ED0005650DA22DECF3CF0DECF3DF0DECF3EF0D2
:101EE000DECF3FF020EE1AF05550D9265650DA22B8
:101EF000DECF40F0DECF41F0DECF42F0DECF43F068
:101F00003C50405C4A6E3D5041584B6E3E504258EA
:101F10004C6E3F5043584D6E39503C6E3A503D6EBA
:101F20003E6A3F6A3C504A5C3D504B583E504C58CC
:101F30003F504D58D8B058D14AC039F04BC03AF054
:101F400053D120EE16F05550D9265650DA22DECF66
:101F50003CF0DDCF3DF0FF0E3C143E6E010E3D1413
:101F60003F6E3E503F10D8A4C5D020EE16F055501D
:101F7000D9265650DA22DECF3CF0DECF3DF0DECF60
:101F80003EF0DECF3FF00A0E05D0D8903F323E3211
:101F90003D323C32E82EF9D720EE02F05550D926DA
:101FA0005650DA22DF50406E40043C14526E5250BC
:101FB000D8A449D020EE16F05550D9265650DA2232
:101FC000DE50DE10DE10DE10D8A40FD020EE1EF0A2
:101FD0005550D9265650DA22DECF4EF0DECF4FF0E4
:101FE000DECF50F0DECF51F018D020EE22F0555069
:101FF000D9265650DA22DECF23F0DECF24F0DECF12
:1020000025F0DECF26F0AFEC99F023C04EF024C0CF
:102010004FF025C050F026C051F0515050104F10D5
:1020200004E1020E4E5CD8A026D720EE22F05550D7
:10203000D9265650DA224EC0DEFF4FC0DEFF50C018
:10204000DEFF51C0DEFF20EE22F05550D92656505B
:10205000DA22DECF11F0DECF12F0DECF13F0DECFCA
:1020600014F050ECA2F011C046F012C047F013C0BB
:1020700048F014C049F04650471048104910D8B4F1
:10208000FAD6525046243C6E000E47203D6E000E9C
:1020900048203E6E000E49203F6E20EE26F055503F
:1020A000D9265650DA223CC0DEFF3DC0DEFF3EC0DE
:1020B000DEFF3FC0DEFF000E136E000E146E20EE3A
:1020C00026F05550D9265650DA22DECF15F0DECF55
:1020D00016F0DECF17F0DECF18F049EC9EF00009C5
:1020E000D8A4C9D620EE01F05550D9265650DA2290
:1020F000000EDB8C20EE16F05550D9265650DA2211
:10210000DECF3CF0DDCF3DF0FF0E3C143E6E010E05
:102110003D143F6E3E500008536E3F50D8A0E82A51
:102120000208546E5350395C54503A58D8B004D019
:1021300039C053F03AC054F044C013F045C014F015
:1021400053C015F054C016F0176A186A49EC9EF097
:102150000009D8A490D620EE16F05550D926565036
:10216000DA225350DE265450DE22000EDE22DE221A
:1021700053504426545045225350395E54503A5AD5
:102180003B50D96EDA6A5350DE265450DD2220EEE1
:1021900016F05550D9265650DA22DECF3CF0DDCF6E
:1021A0003DF0FF0E3C143E6E010E3D143F6E3E505E
:1021B0003F10D8A419D0000E136E000E146E000E3E
:1021C000156E000E166E000E176E000E186E49EC9E
:1021D0009EF00009D8A44FD620EE01F05550D92624
:1021E0005650DA22BF0EDF1639503A10D8B454D602
:1021F000A8D6B10E1C6EB00E1D6EAF0E1E6E5A0E1E
:102200001F6E590E206E580E216EAE0E226EF3EC2C
:10221000A7F00001D06BC60E486EFC0E496EB8ECFC
:10222000AFF0630E486EFA0E496EB8ECAFF0C70E11
:10223000486EFD0E496EB8ECAFF042D04E0E486EBF
:10224000FF0E496EB8ECAFF05850E4ECAEF04BD056
:10225000090E486EFF0E496EB8ECAFF05950E4EC31
:10226000AEF041D0BB0E486EFD0E496EB8ECAFF03B
:102270001D0E486EFF0E496EB8ECAFF05A50E4ECFC
:10228000AEF031D0130E486EFF0E496EB8ECAFF0D1
:10229000AF51E4ECAEF027D0AF0E486EFE0E496EA3
:1022A000B8ECAFF0B051E4ECAEF01DD0A30E486E28
:1022B000FE0E496EB8ECAFF0B151E4ECAEF013D0C5
:1022C000D051000AD8B4BAD7010AD8B4C1D7030A8A
:1022D000D8B4C8D7010AD8B4D5D7070AD8B4DCD740
:1022E000010AD8B4E3D7000E0001B86F000EB96F31
:1022F000000EBA6F2CEC9DF09EECACF0576E750E94
:102300005718D8B410D0550E5718D8B40CD0740E36
:102310005718D8B408D0540E5718D8B404D00D0E9E
:102320005718D8A4E0D7750E5718D8B46AD0550EF0
:102330005718D8B466D079D0582A630E586475D02F
:10234000586A73D0592A0C0E59646FD0010E596E19
:102350006CD05A2A020E5918D8A42CD05A50C86FE3
:10236000C96BFF0E5924CA6FCB6BFF0ECB23170E20
:10237000CA25F66EF30ECB21F76EF86A000EF8222E
:102380000800F550CC6FCD6B5850D4ECAFF0000185
:10239000CE6FCE51CC27000ECD23C851CC5DCD5190
:1023A000800ACF6FC951800ACF59D8B03ED0010EF4
:1023B0005A6E3BD0FF0E5924C86FC96BFF0EC9235C
:1023C000170EC825F66EF30EC921F76EF86A000ED7
:1023D000F8225A500900F55CD8A0E9D726D0AF2BD7
:1023E000170EAF6522D0AF6B20D0B02B3B0EB0657F
:1023F0001CD0B06B1AD0B12B3B0EB16516D0B16BAF
:1024000014D00001D051000AD8B496D7010AD8B42C
:1024100099D7030AD8B49DD7010AD8B4E0D7070AE0
:10242000D8B4E3D7010AD8B4E6D7740E5718D8B495
:1024300090D0540E5718D8B48CD09FD058500A0F53
:10244000586E630E586499D00A0E056E585056ECBB
:10245000ADF0F60DF3505824586E8FD00A0E596423
:1024600003D05950F60F05D0030E596086D059504D
:102470000A0F596E82D05A500A0F5A6E5A50C86FBE
:10248000C96BFF0E5924CA6FCB6BFF0ECB23170EFF
:10249000CA25F66EF30ECB21F76EF86A000EF8220D
:1024A0000800F550CC6FCD6B5850D4ECAFF0000164
:1024B000CE6FCE51CC27000ECD23C851CC5DCD516F
:1024C000800ACF6FC951800ACF59D8B009D00A0EFF
:1024D000056E5A5056ECADF0F60DF3505A245A6E74
:1024E0005A50D8A44AD0010E5A6E47D0AF510A0FA5
:1024F000AF6F170EAF6541D00A0E056EAF5156ECA7
:10250000ADF0F60DF3500001AF25AF6F36D0B051EE
:102510000A0FB06F3B0EB06530D00A0E056EB05199
:1025200056ECADF0F60DF3500001B025B06F25D09C
:10253000B1510A0FB16F3B0EB1651FD00A0E056E87
:10254000B15156ECADF0F60DF3500001B125B16F6D
:1025500014D00001D051000AD8B470D7010AD8B401
:102560007DD7030AD8B487D7010AD8B4BFD7070AE2
:10257000D8B4CDD7010AD8B4DBD7F10E486EFB0E24
:10258000496EB8ECAFF00D0E5718D8A450D6D02B2A
:10259000050ED0654CD6B0C018F0AFC019F05AC0C7
:1025A0001AF059C01BF058C01CF0B15134ECACF01B
:1025B000020E486EFE0E496EB8ECAFF0E30E486EA8
:1025C000FC0E496EB8ECAFF0010E6DECA6F0880E73
:1025D000486EFF0E496EB8ECAFF0120037C0C2F083
:1025E00038C0C3F06FC0C6F070C0C7F03B50D96EA2
:1025F000DA6ADE6ADD6A0001C651C711D8A402D0CA
:10260000050E120020EE01F0C651D926C751DA227C
:10261000DFB002D0040E120020EE16F0C651D9260B
:10262000C751DA22DECF3CF0DECF3DF0DECF3EF008
:10263000DECF3FF020EE1AF0C651D926C751DA227C
:10264000DECF40F0DECF41F0DECF42F0DECF43F010
:102650003C50405CB96F3D504158BA6F3E504258B3
:10266000BB6F3F504358BC6F39503C6E3A503D6E83
:102670003E6A3F6A3C50B95D3D50BA593E50BB5925
:102680003F50BC59D8B03DD1B9C039F0BAC03AF0CA
:1026900038D120EE16F0C651D926C751DA22FF0EE6
:1026A000DE143C6E010EDE143D6E000EDE143E6E36
:1026B000000EDE143F6E3C503D103E103F10D8A47B
:1026C000B1D020EE16F0C651D926C751DA22DECF9E
:1026D0003CF0DECF3DF0DECF3EF0DECF3FF00A0E25
:1026E00005D0D8903F323E323D323C32E82EF9D709
:1026F00020EE02F0C651D926C751DA22DF50406ED3
:1027000040043C14C16FC151D8A453D020EE16F040
:10271000C651D926C751DA22DE50DE10DE10DE1097
:10272000D8A40FD020EE1EF0C651D926C751DA2208
:10273000DECFBDF0DECFBEF0DECFBFF0DECFC0F02B
:1027400018D020EE22F0C651D926C751DA22DECFAA
:1027500023F0DECF24F0DECF25F0DECF26F0AFEC85
:1027600099F023C0BDF024C0BEF025C0BFF026C044
:10277000C0F00001C051BF11BE110DE1020EBD5DE0
:10278000D8B009D020EE01F0C651D926C751DA22BF
:10279000DF6A010E120020EE22F0C651D926C75181
:1027A000DA22BDC0DEFFBEC0DEFFBFC0DEFFC0C09C
:1027B000DEFF20EE22F0C651D926C751DA22DECF45
:1027C00011F0DECF12F0DECF13F0DECF14F050ECBC
:1027D000A2F011C0B5F012C0B6F013C0B7F014C02B
:1027E000B8F00001B551B611B711B811D8B4CAD7B5
:1027F000C151B5253C6E000EB6213D6E000EB721CD
:102800003E6E000EB8213F6E20EE26F0C651D9264E
:10281000C751DA223CC0DEFF3DC0DEFF3EC0DEFF16
:102820003FC0DEFF20EE16F0C651D926C751DA228E
:10283000DECF3CF0DDCF3DF0FF0E3C143E6E010ECE
:102840003D143F6E3E500008C46F3F50D8A0E82AA8
:102850000208C56FC451395CC5513A58D8B004D08C
:1028600039C0C4F03AC0C5F0C2C013F0C3C014F000
:1028700020EE26F0C651D926C751DA22DECF15F058
:10288000DECF16F0DECF17F0DECF18F020EE16F018
:10289000C651D926C751DA22DECF3CF0DDCF3DF05C
:1028A000FF0E3C14196E010E3D141A6EC4C01BF0CD
:1028B000C5C01CF0CFEC9EF00001B46FB451D8A499
:1028C00061D720EE16F0C651D926C751DA22C4517D
:1028D000DE26C551DE22000EDE22DE22C451395E24
:1028E000C5513A5A3B50D96EDA6AC451DE26C551F9
:1028F000DD22C251C311D8B404D0C451C227C5517E
:10290000C32339503A10D8A4C4D6000E1200266A48
:10291000000E276E000E286E000E296E000E2A6E25
:1029200011C02BF012C02CF015BE06D0155008E1D6
:10293000250E145CD8B004D014041510D8A406D009
:10294000000E0101956F160E946F55D12B502C106F
:10295000D8B451D12BC0D9FF2CC0DAFFDF50D8B486
:102960004AD102D02B4A2C2A2BC0D9FF2CC0DAFF27
:10297000DF502D6E200E2D18D8B4F4D72DC017F0CF
:10298000F70E1726040E1764EDD72D0E2D18D8A4B8
:102990000BD0010E266E2B4A2C2A2BC0D9FF2CC03F
:1029A000DAFFDF502D6E04D02B0E2D18D8B4F3D7DC
:1029B000300E2D18D8A464D02B4A2C2A2BC0D9FF56
:1029C0002CC0DAFFDF502D6E14501510D8B405D08E
:1029D000100E14181510D8A44AD0780E2D18D8B49B
:1029E00004D0580E2D18D8A442D0000E156E100E2B
:1029F000146E2B4A2C2A2BC0D9FF2CC0DAFFDF50D3
:102A00002D6E2DC017F0200E17129F0E17261A0ECE
:102A1000176018D02DC017F09F0E1726190E1764D7
:102A200003D02DC01EF006D02DC017F05F0E171674
:102A300017501E6E1F6A1EC017F0C90E1726100E03
:102A4000176010D02DC017F0200E17129F0E1726FA
:102A5000190E176415D02DC017F0D00E1726090EC9
:102A600017640ED026842B06D8A02C06C4D026844A
:102A700014501510D8A404D0000E156E080E146E54
:102A800014501510D8A404D0000E156E0A0E146E42
:102A90001650D8B413D026B008D0FF0E226EFF0E09
:102AA000236EFF0E246E7F0E07D0000E226E000EE6
:102AB000236E000E246E800E256E04D022682368DB
:102AC0002468256827C01AF028C01BF029C01CF014
:102AD0002AC01DF02DC017F0200E17129F0E1726CA
:102AE0001A0E176015D02DC017F09F0E1726190E5D
:102AF000176403D02DC020F006D02DC017F05F0E54
:102B000017161750206E216A2050C90F2D6E09D05C
:102B10002DC017F0D00E17260A0E17605FD0300EAA
:102B20002D5E2D50176E186A1450175C1850800ACD
:102B3000196E1550800A1958D8B050D026B244D01A
:102B400014C005F015C006F0000E06BEFF0E076E9D
:102B5000086E27C009F028C00AF029C00BF02AC06F
:102B60000CF015ECABF02D500524276E000E06205E
:102B7000286E000E0720296E000E08202A6E1A50BB
:102B8000275C1B5028581C5029581D502A58D8A083
:102B90000DD01650D8B418D02750225C2850235896
:102BA000295024582A502558D8B00ED022C027F0DA
:102BB00023C028F024C029F025C02AF0000E01010E
:102BC000956F220E946F26822B4A2C2A2BC0D9FF98
:102BD0002CC0DAFFDF502D6E268474D72650030BED
:102BE000E806D8A408D02A1E291E281E276C000E2D
:102BF000282229222A221350D8B40DD026B404D07A
:102C000011C02BF012C02CF01350D96EDA6A2BC011
:102C1000DEFF2CC0DDFF27C011F028C012F029C054
:102C200013F02AC014F0120034D18DBC02D0010E72
:102C30000BD0000E09D08551D8B448D1120E146EB5
:102C4000200E0BECAAF00AD0976F40D18551D8B472
:102C50003DD1130E146E200E0BECAAF00001F4D738
:102C60008451D8B433D1120E146E200E0BECAAF09E
:102C70000001976F9751F80B0109E6D78351D8B43B
:102C800052D07F518011D8A410D0B10E1C6EB00E5E
:102C90001D6EAF0E1E6E5A0E1F6E590E206E580E10
:102CA000216EAE0E226EF3ECA7F0000180513BE1E5
:102CB000070E7F5DD8A016D036D0B1C097F030D0C7
:102CC000B0C097F02DD0AFC097F02AD05AC097F07F
:102CD00027D059C097F024D058C097F021D0AEC06B
:102CE00097F01ED07FC0E9F080C0EAF0EA51000AF8
:102CF000D8A416D0E951000AD8B4DFD7010AD8B455
:102D0000DFD7030AD8B4DFD7010AD8B4DFD7070A60
:102D1000D8B4DFD7010AD8B4DFD7030AD8B4DFD7D5
:102D20007F4B802BD3D0FD69D1D086C097F0CED019
:102D30007F518011D8A447D0F851D8B403D07F0E6A
:102D4000B36506D0F851D8A43ED0200EB3613BD075
:102D50008651D8A438D0F851D8B409D08C51D8A411
:102D6000A9ECA8F0B341E8423F0B886F02D0B3C092
:102D700088F07BC0E9F07CC0EAF0050ED890E93716
:102D8000EA37E82EFBD78851E911796FEA517A6F5B
:102D9000010EEB6F7751791907E178517A19D8A4B0
:102DA00003D0F951D8B4EB6BEBC08BF08B51D8B496
:102DB0000AD08651D8A407D079C04CF07AC04DF023
:102DC000DFECADF0866F8651D8A441D07F518011E1
:102DD000D8A42FD08B51D8B41AD0A00E446E050EB3
:102DE000456EAB0E466E10ECAEF0866F79C077F094
:102DF0007AC078F08651D8A409D0020EAC5DD8B064
:102E000005D0010EF96F130E866F01D0F96BF851E2
:102E1000D8B40BD0B3C0E9F0030EE917E951800D27
:102E2000F3CF75F0F4CF76F004D0000E766F000E7D
:102E3000756F8651D8A409D0A00E7525D96E050EE0
:102E40007621DA6EDF50976F02D0010EF96FF851DC
:102E5000D8B406D080510BE17F0E7F5DD8B007D08B
:102E6000F851D8A405D07F29010E8059D8B0FD694A
:102E70007F4B802B754B762B29D0980E3E6E010E22
:102E80003F6E47ECB0F00001866F4FD7A9ECA8F079
:102E90004CD70001FD51800AD8B4C7D6010AD8B476
:102EA000CAD6030AD8B4D2D6010AD8B4D9D6070AEA
:102EB000D8B4E4D6010AD8B438D7030AD8B438D77E
:102EC000010AD8B4DAD70F0AD8B4E0D7840EFD19B6
:102ED000D8B41200860EFD19D8B41200FD69120094
:102EE000680EBDECABF00009D8B402D0000E1200A1
:102EF000A70E486EFC0E496EB8ECAFF0010E6DECFB
:102F0000A6F0880E486EFF0E496EB8ECAFF0A30E27
:102F1000486EFB0E496EAEC04AF04B6AB8ECAFF09B
:102F20000F0E146E680E0BECAAF0800B0001B46F4C
:102F3000B451D8B42CD1B90E056E6C0E066EF90ED4
:102F4000076E000E096E020E086EEAECAAF0B90ECA
:102F5000056E3AECADF00001B16FB90E056E690E69
:102F6000066EF90E076E000E096E020E086EEAEC90
:102F7000AAF0B90E056E3AECADF00001B06FB90ED3
:102F8000056E660E066EF90E076E000E096E020ED5
:102F9000086EEAECAAF0B90E056E3AECADF000014D
:102FA000AF6FB90E056E5E0E066EF90E076E000E5F
:102FB000096E020E086EEAECAAF0B90E056E3AEC44
:102FC000ADF05A6E57D05B0EF66EF90EF76E000E2E
:102FD000F86E0800F550610AD8A402D0010E48D05E
:102FE0005C0EF66EF90EF76E000EF86E0800F550E6
:102FF0006E0AD8A402D0060E3BD0070E39D0020EBE
:1030000037D05C0EF66EF90EF76E000EF86E080003
:10301000F550720AD8B405D0000E0001B66F080E44
:1030200004D0000E0001B66F040EB56FB5C059F0A4
:1030300041D05C0EF66EF90EF76E000EF86E0800C9
:10304000F550720AD8B405D0000E0001B86F050E15
:1030500004D0000E0001B86F030EB76FB7C059F06F
:1030600029D0090E05D00A0E03D00B0E01D00C0E8C
:10307000596E20D05A0EF66EF90EF76E000EF86EED
:103080000800F550410AD8B4BCD7050AD8B4EFD728
:10309000020AD8B4B4D70C0AD8B495D7070AD8B462
:1030A000C8D7030AD8B4E1D7010AD8B4DCD71C0AC0
:1030B000D8B4D7D7B90E056E630E066EF90E076E3B
:1030C000000E096E020E086EEAECAAF0B90E056E4B
:1030D0003AECADF0586E380E486EFD0E496EB8EC05
:1030E000AFF0780E486EFB0E496EB8ECAFF0000EF4
:1030F0006DECA6F0D30E486EFE0E496EB8ECAFF044
:103100009EECACF0576E790E5718D8B40CD0590E0F
:103110005718D8B408D06E0E5718D8B404D04E0E35
:103120005718D8A4EDD7BA0E486EFF0E496E57C097
:103130004AF04B6AB8ECAFF0790E5718D8B404D007
:10314000590E5718D8A41CD0B0C018F0AFC019F051
:103150005AC01AF059C01BF058C01CF0B15134ECE1
:10316000ACF03F0E486EFC0E496EB8ECAFF0010EAD
:103170006DECA6F0100E486EFE0E496EB8ECAFF086
:103180000F0E146E080E156E680E93ECAAF0010E69
:1031900012008251D8A48CBA0ED0000E136E000E0D
:1031A000146E000E156E000E166E000E176E000ED9
:1031B000186E49EC9EF018ECB1F0828A0A0E276E68
:1031C00003D024ECB1F027062750D8A4FAD7246AFC
:1031D000000E0D6E000E0E6E000E0F6E000E106EC5
:1031E000400E5AECACF0E806D8A4ADD0AA0E0D6E95
:1031F000010E0E6E000E0F6E000E106E480E5AEC91
:10320000ACF0E806D8A45AD0276A27501D0FD96E13
:10321000DA6A24ECB1F0DF6E272A030E2764F5D7B3
:103220001F04D8A490D0AA0E2018D8A48CD0270EA2
:10323000266E100E256E05D081ECB0F02506D8A0C4
:10324000260625502610D8B40ED0000E0D6E000EA6
:103250000E6E000E0F6E400E106EE90E5AECACF0C2
:103260000009D8A4E9D725502610D8B46CD0000E98
:103270000D6E000E0E6E000E0F6E000E106E7A0EAA
:103280005AECACF00009D8A45ED0276A27501D0F75
:10329000D96EDA6A24ECB1F0DF6E272A030E2764B8
:1032A000F5D71DBC04D0000E226E040E03D0000E14
:1032B000226E0C0E216E21C024F045D0000E0D6E42
:1032C000000E0E6E000E0F6E000E106EE90E5AEC20
:1032D000ACF01C6E020E1C6004D0020E246EE90ECF
:1032E00003D0010E246E410E236E270E266E100EA3
:1032F000256E05D081ECB0F02506D8A02606255015
:103300002610D8B40ED0000E0D6E000E0E6E000EFC
:103310000F6E000E106E23505AECACF00009D8A4CA
:10332000E9D725502610D8B40DD0000E0D6E020E30
:103330000E6E000E0F6E000E106E500E5AECACF0BA
:103340000009D8A4246A24C082F0828A24ECB1F057
:103350002450D8A402D0010E1200000E12006FC03B
:1033600035F070C036F026502510241004E1020E0E
:10337000235CD8A010D020EE06F03550D926365068
:10338000DA22DE50235CDE502458DE502558DE5011
:103390002658D8A0A4D0010E236E000E246E000E75
:1033A000256E000E266E1200310E136E146A20EE8A
:1033B0000AF03550D9263650DA22DECF27F0DECF9C
:1033C00028F0DECF29F0DECF2AF024502B6E2550D6
:1033D0002C6E26502D6E2E6A27502B24156E2850E9
:1033E0002C20166E29502D20176E2A502E20186E74
:1033F000FF0E23142F6E000E2414306ED8902F343D
:10340000196E30341A6E000E1C6E020E1B6ECFEC5D
:103410009EF00009D8A4BFD7310E056EC5ECADF003
:1034200005C023F006C024F0256A266A1200310E7A
:10343000136E146A20EE0AF03550D9263650DA227F
:10344000DECF27F0DECF28F0DECF29F0DECF2AF066
:1034500023C02BF024C02CF025C02DF026C02EF068
:10346000080E05D0D8902E322D322C322B32E82E79
:10347000F9D727502B24156E28502C20166E295072
:103480002D20176E2A502E20186E7F0E23142F6EBB
:10349000000E2414306ED8902F363036D8902F3648
:1034A00030362FC019F030C01AF0000E1C6E040E1A
:1034B0001B6ECFEC9EF00009D8A46DD7310E056EBF
:1034C000B1ECA2F0FF0E0514236EFF0E0614246E5D
:1034D000FF0E0714256E0F0E0814266E120035C05D
:1034E000D9FF36C0DAFFDF50020AD8B45DD7010A2F
:1034F000D8B49DD750D76FC040F070C041F037505E
:10350000D96EDA6ADECF38F0DDCF39F0010E38241B
:10351000466E000E3920476E46504710D8B40BD087
:103520003750D96EDA6A0B0ED926DE50DE10DE1067
:10353000DE10D8A402D0030E120046C038F00F0EE1
:103540003816D8A49AD03750D96EDA6A0B0ED9261D
:10355000DE2A000EDE22DE22DE223750D96EDA6A43
:10356000070ED926DE50DE10DE10DE10D8A40DD0F6
:1035700020EE04F04050D9264150DA22DE50465C5D
:10358000DE504758D8B0D7D778D046C038F047C0BB
:1035900039F0040E3A6ED890393238323A2EFBD7D1
:1035A00020EE02F04050D9264150DA22DF503B6E27
:1035B000FF0E3B243C6E3D6AFF0E3D2238503C140A
:1035C0003E6E39503D143F6E3E503F10D8A455D04A
:1035D0003750D96EDA6A070ED926DECF23F0DECF58
:1035E00024F0DECF25F0DECF26F0AFEC99F023C03B
:1035F00042F024C043F025C044F026C045F04550B9
:103600004410431006E1020E425CD8B002D0010E15
:10361000120020EE06F04050D9264150DA22DE504A
:10362000425CDE504358DE504458DE504558D8B016
:1036300082D73750D96EDA6A070ED92642C0DEFF2C
:1036400043C0DEFF44C0DEFF45C0DEFF42C011F0D4
:1036500043C012F044C013F045C014F050ECA2F087
:103660003750D96EDA6A0B0ED92611C0DEFF12C0B0
:10367000DEFF13C0DEFF14C0DEFF3750D96EDA6AFA
:1036800046C0DEFF47C0DDFF000E1200566E5350ED
:10369000D8B41200130E486EFE0E496EB8ECAFF0AF
:1036A000D00E486EFE0E496E53C04AF04B6AB8EC1D
:1036B000AFF0FD0E486EFC0E496EB8ECAFF031D0A5
:1036C000570E486EFF0E496EB8ECAFF03ED03B0E81
:1036D000486EFF0E496EB8ECAFF037D0680E486EFA
:1036E000FF0E496EB8ECAFF030D0DE0E486EFE0E25
:1036F000496EB8ECAFF029D0BB0E486EFE0E496E95
:10370000B8ECAFF022D06F0E486EFE0E496EB8ECEA
:10371000AFF01BD0700E486EFF0E496EB8ECAFF0E4
:1037200014D05350010AD8B4CBD7030AD8B4CFD79A
:10373000010AD8B4D3D7070AD8B4D7D7010AD8B466
:10374000DBD7030AD8B4DFD7E5D7BF0E486EFF0E2C
:10375000496EB8ECAFF02AD0AA0E486EFF0E496E43
:10376000B8ECAFF034D0E20E486EFF0E496EB8EC04
:10377000AFF02DD0D80E486EFF0E496EB8ECAFF00A
:1037800026D0A40E486EFF0E496EB8ECAFF01FD0E5
:10379000DD0E486EFF0E496EB8ECAFF018D0700E1B
:1037A000486EFF0E496EB8ECAFF011D05650000ACB
:1037B000D8B4D2D7010AD8B4D6D7030AD8B4DAD746
:1037C000010AD8B4DED7070AD8B4E2D7E8D7F40E96
:1037D000486EFE0E496EB8ECAFF054505510D8B498
:1037E0000CD0FF0E486EFE0E496EB8ECAFF054C020
:1037F00048F055C049F0B8ECAFF0B00E486EFF0E7F
:10380000496EB8ECAFF0120002D0504A512A50C0B5
:10381000F6FF51C0F7FF000EF86E0F0EF76403D0ED
:103820000800F55005D0F6CFE1FFF7CFE2FFE750F3
:10383000200AD8B4EAD750C0F6FF51C0F7FF000EF7
:10384000F86E0F0EF76403D00800F55005D0F6CFE0
:10385000E1FFF7CFE2FFE7502F0AD8A402D0504A89
:10386000512A4E50D96EDA6A030ED926DE6ADE6A14
:10387000DE6ADD6A50C0F6FF51C0F7FF000EF86E39
:103880000F0EF76403D00800F55005D0F6CFE1FF26
:10389000F7CFE2FFE750526E200E52600AD04EC0C2
:1038A0001CF0BCEC9DF0536E4F50D96EDA6ADF6AA3
:1038B0003DD04EC00BF0500E0C6E4DEC9FF0536E91
:1038C0005350D8A433D04EC048F04FC049F01AEC42
:1038D000A1F0536E5350D8A429D04E50D96EDA6A55
:1038E000020ED926DF50D96EDA6A0B0ED926DF50C8
:1038F000D8A41CD04F50D96EDA6A0B0ED926DFB887
:1039000003D0030E536E12D04FC00CF0B2ECA6F0F1
:103910004E50D96EDA6A030ED9260CC0DEFF0DC0F8
:10392000DEFF0EC0DEFF0FC0DEFFC3D75350120014
:1039300012C01AF013C01BF01A501B10D8A404D0E8
:10394000780E1A6EFF0E1B6E000E1D6E000E1C6EA2
:1039500002D01C4A1D2A1C501A24146E1D501B2014
:10396000156E14C0F6FF15C0F7FF000EF86E0F0EAF
:10397000F76403D00800F55005D0F6CFE1FFF7CF8C
:10398000E2FFE7500009D8A4E4D71CC016F01DC020
:1039900017F06DC018F06EC019F0000181A10DD0B4
:1039A00034D0000E086E200E076E10C009F011C052
:1039B0000AF0AAECA4F01C4A1D2A18501C5C1D50E9
:1039C000800A146E1950800A1458D8B01ED0E9D756
:1039D0001AC0F6FF1BC0F7FF000EF86E0F0EF7645B
:1039E00003D00800F55005D0F6CFE1FFF7CFE2FF96
:1039F000E750146E1450076E086A10C009F011C029
:103A00000AF0AAECA4F01A4A1B2A1606D8A0170638
:103A10001628DEE11728D8A4DBD7000181B10DD02C
:103A200016D0000E086E200E076E10C009F011C0EF
:103A30000AF0AAECA4F01C4A1D2A18501C5C1D5068
:103A4000800A146E1950800A1458D8A0EAD71CC0F6
:103A500010F01DC011F01200010EC36FF8ECAEF0B3
:103A600005C0C4F006C0C5F007C0C6F008C0C7F066
:103A70007ED0F8ECAEF00001C451055CBB6FC551BF
:103A80000658BC6FC6510758BD6FC7510858BE6F66
:103A9000BE51BD1108E1B80EBB5D0B0EBC59D8A0DC
:103AA0008DAC01D0C36BF8ECAEF00001BF51055CEA
:103AB000BB6FC0510658BC6FC1510758BD6FC25192
:103AC0000858BE6FBE51BD1106E12D0EBB5D010E43
:103AD000BC59D8A018D083AE02D0010E01D0000E80
:103AE000FF0ABB6FBB33BB338350BB197F0BBB19C2
:103AF000836EF8ECAEF005C0BFF006C0C0F007C0A2
:103B0000C1F008C0C2F0F8ECAEF00001C451055C91
:103B1000BB6FC5510658BC6FC6510758BD6FC75122
:103B20000858BE6FBE51BD1106E1B90EBB5D0B0E4C
:103B3000BC59D8A01CD0C351D8B419D0B851B911B0
:103B4000BA11D8B414D0060E8E19D8A404D0060E1B
:103B50008D19D8B40CD001D80AD00500FA6EB8512E
:103B6000FD6EB951FE6EBA51FF6EFA50120000019F
:103B7000A151D8A412007DD76FC025F070C026F0E7
:103B80001C50D96EDA6ADE6ADD6A1C50D96EDA6AB8
:103B9000030ED926DECF27F0DECF28F0DECF29F0C6
:103BA000DECF2AF02704281029102A10D8B410D00C
:103BB00020EE06F02550D9262650DA22DE50275C6A
:103BC000DE502858DE502958DE502A58D8A002D09E
:103BD000010E12002750281029102A10D8A416D040
:103BE00025C0D9FF26C0DAFF030EDE18D8A40ED0F8
:103BF00020EE0EF02550D9262650DA22DECF27F00F
:103C0000DECF28F0DECF29F0DECF2AF01C50D96EAF
:103C1000DA6A070ED92627C0DEFF28C0DEFF29C0DA
:103C2000DEFF2AC0DEFF2750281029102A10D8A452
:103C30000FD020EE0EF02550D9262650DA22DECF06
:103C400021F0DECF22F0DECF23F0DECF24F012D041
:103C500027C011F028C012F029C013F02AC014F0B8
:103C600050ECA2F011C021F012C022F013C023F0DA
:103C700014C024F01C50D96EDA6A0B0ED92621C06C
:103C8000DEFF22C0DEFF23C0DEFF24C0DEFF000E09
:103C90001200010E196E13501410D8B420D015C0A4
:103CA0001AF016C01BF010D013C0D9FF14C0DAFFF1
:103CB000DF50AFECB0F0134A142A00017107D8A00E
:103CC00072071A06D8A01B061A501B10D8B405D0CC
:103CD000000171517211D8A4E7D7196A5ED015504E
:103CE000161017101810D8B425D0000182B708D0CC
:103CF000090ED8901536163617361836E82EF9D72D
:103D000015C00DF016C00EF017C00FF018C010F05F
:103D1000580E5AECACF00009D8A43FD0FF0EAFEC1F
:103D2000B0F0FE0EAFECB0F0020E0001726F000EAC
:103D3000716FD3D7020E000171251A6E000E722129
:103D40001B6E03D0000EAFECB0F01A06D8A01B0615
:103D50001A28F8E11B28D8A4F5D724ECB1F01F0BE2
:103D6000050AD8A417D0130E1B6E880E1A6E05D044
:103D700081ECB0F01A06D8A01B0624ECB1F0FF0AC3
:103D8000D8B404D01A501B10D8A4F2D71A501B1064
:103D9000D8A4196A828A24ECB1F0195012000001EB
:103DA00082B708D0090ED890153616361736183651
:103DB000E82EF9D7010E1F6E15C00DF016C00EF0DB
:103DC00017C00FF018C010F0510E5AECACF00009FB
:103DD000D8A45ED09C0E226E400E216E24ECB1F071
:103DE000206E2028D8A407D02106D8A02206215072
:103DF0002210D8A4F3D7FE0E2018D8A449D019C099
:103E00001DF01AC01EF01D1E1E1E1D4A1E2A1B502C
:103E10001D5E1C501E5A020E1D24216E020E1E2015
:103E2000226E19501A10D8B409D024ECB1F019063A
:103E3000D8A01A0619501A10D8A4F7D71350141086
:103E4000D8B411D024ECB1F013C0D9FF14C0DAFFFC
:103E5000DF6E134A142A1B06D8A01C061B501C1028
:103E6000D8B40CD0EFD724ECB1F09FECB1F01B0626
:103E7000D8A01C061B501C10D8A4F5D724ECB1F018
:103E80002106D8A0220621502210D8A4F7D71F6AF5
:103E9000828A24ECB1F01F5012000B50D96EDA6AFE
:103EA000020ED926DF50136E13C005F0000E076E08
:103EB000200E066E000E096E0B0E086E1FECAFF0A2
:103EC000146A126A080E116E0C50D96EDA6ADECFCF
:103ED0000FF0DDCF10F012500F240D6E000E1020E9
:103EE0000E6E0DC0F6FF0EC0F7FF000EF86E0F0E3F
:103EF000F76403D00800F55005D0F6CFE1FFF7CF07
:103F0000E2FFE750156E122A200E156422D02F0E04
:103F10001518D8B41ED02E0E1518D8B404D01150D0
:103F2000145CD8A00FD0080E1118D8A412D02E0EF1
:103F30001518D8A40ED0080E146E0B0E116ECBD728
:103F4000142AC9D713501424D96EDA6A15C0DFFFBA
:103F5000F7D712500F240D6E000E10200E6E0C506D
:103F6000D96EDA6A0DC0DEFF0EC0DDFF1350D96EC8
:103F7000DA6A0B0ED926200E156401D002D0010E8C
:103F800001D0000EDF6E000E1200010E266E6DC015
:103F900027F06EC028F0000E2A6E1F0E296E010158
:103FA000E16B3CD02906D8A02A06C20E2924D96E7E
:103FB000010E2A20DA6E22C005F023C006F024C0CC
:103FC00007F025C008F00A0E096E000E0A6E000EFA
:103FD0000B6E000E0C6E11ECA9F00550300FDF6E69
:103FE000266A2706D8A0280622C00CF023C00DF0B0
:103FF00024C00EF025C00FF00A0E106E000E116ED8
:10400000000E126E000E136EF5ECA6F00CC022F03E
:104010000DC023F00EC024F00FC025F029502A1047
:10402000D8B413D02250231024102510D8A4BAD706
:104030002650D8A4B7D728BE08D0285003E12704BB
:10404000D8A003D0000181B3ADD720C017F021C0A4
:1040500018F0C20E2924196E010E2A201A6E27C0EC
:104060001BF028C01CF0DFECA5F017C020F018C032
:1040700021F0120023C013F0146A24C015F025C0EB
:1040800016F026C017F027C018F0010E1A6EFE0EAB
:10409000196E000E1C6E020E1B6ECFEC9EF0000916
:1040A000D8B402D0030E120023C005F0C5ECADF069
:1040B000550E051804E1AA0E0618D8B402D0020E57
:1040C000120023C013F0146A24C015F025C016F0A6
:1040D00026C017F027C018F0000E1A6E360E196EA3
:1040E000000E1C6E020E1B6ECFEC9EF00009D8A4D1
:1040F0000DD023C005F0C5ECADF0460E051806E165
:10410000410E0618D8A402D0000E120023C013F0EE
:10411000146A24C015F025C016F026C017F027C079
:1041200018F0000E1A6E520E196E000E1C6E020E62
:104130001B6ECFEC9EF00009D8A40BD023C005F075
:10414000C5ECADF0460E051804E1410E0618D8B4D2
:10415000DBD7010E1200010E2A6E6DC02BF06EC06F
:104160002CF0000E2F6E1F0E2E6E0101E16B32D06F
:104170002E06D8A02F0622500F0B2D6E0A0E2D6092
:1041800002D0300E01D0570E2D26C20E2E24D96E2D
:10419000010E2F20DA6E2DC0DFFF2A6A2B06D8A071
:1041A0002C0622C026F023C027F024C028F025C00A
:1041B00029F0050E05D0D890293228322732263230
:1041C000E82EF9D726C022F027C023F028C024F01B
:1041D00029C025F02FBE19D02F5004E1020E2E5C0D
:1041E000D8A013D02250231024102510D8A4C0D753
:1041F0002A50D8A4BDD72CBE08D02C5003E12B04E4
:10420000D8A003D0000181B3B3D720C017F021C0DC
:1042100018F0C20E2E24196E010E2F201A6E2BC01C
:104220001BF02CC01CF0DFECA5F017C020F018C06C
:1042300021F0120048C01CF0BCEC9DF04D6E4D50BA
:10424000D8B402D04D50120049C013F0146A48503F
:10425000D96EDA6A0B0ED926DECF15F0DECF16F056
:10426000DECF17F0DECF18F04850D96EDA6ADECF15
:104270004AF0DDCF4BF00F0E4A16000E4B16050E1E
:10428000D8904A364B36E82EFBD74AC019F04BC0BF
:104290001AF0000E1C6E200E1B6ECFEC9EF0000973
:1042A000D8B402D0010E01D0000E4D6E4D50D8A4EE
:1042B000C9D74950D96EDA6ADF504C6E4C50D8A439
:1042C00003D0030E4D6EBED74950D96EDA6A0B0E7D
:1042D000D926DFB613D049C005F04850D96EDA6A46
:1042E000020ED926DF50066E000E086E0B0E076E0A
:1042F000BFECAAF005500610D8B4A4D748C037F0D8
:104300007BEC9AF04D6E4D50D8A49CD79DD76FC0D2
:10431000E1F070C0E2F00001E151E211D8A402D056
:10432000050E120020EE01F0E151D926E251DA2209
:10433000DF6AD40EE56FE30E4E6EB40E4F6E54C0BE
:1043400050F055C051F004EC9CF00001E06FE051DA
:10435000D8B402D0E0511200B451D8B402D0BFA9F1
:1043600002D0030E1200B40E0C6EB2ECA6F00001E7
:1043700020EE1EF0E151D926E251DA220CC0DEFF18
:104380000DC0DEFF0EC0DEFF0FC0DEFFD00E056EDB
:10439000B1ECA2F0000120EE1AF0E151D926E25171
:1043A000DA2205C0DEFF06C0DEFF07C0DEFF08C060
:1043B000DEFF20EE16F0E151D926E251DA22DE6A64
:1043C000DE6ADE6ADD6A20EE01F0E151D926E251B3
:1043D000DA22010EDF6E000E1200980E3E6E010E04
:1043E0003F6E47ECB0F00009D8B427D0980E3E6E6F
:1043F000010E3F6E47ECB0F000018A6F8A51D8B4CD
:104400001CD08AC053F0000E546E000E556E000E84
:1044100046EC9BF055ECAFF0980E3E6E010E3F6EF1
:1044200047ECB0F0980E3E6E010E3F6E47ECB0F0D8
:1044300000018A6F8A51D8A4E4D7F4C0F2F0F5C025
:10444000F3F0A8ECB0F08A6F8A51D8B412008AC099
:1044500053F0F4C054F0F5C055F0010E46EC9BF05B
:1044600055ECAFF0F4C0F2F0F5C0F3F0A8ECB0F00A
:104470008A6F030E8A19D8B4E7D7980E3E6E010EE4
:104480003F6E47ECB0F0980E3E6E010E3F6E47EC6B
:10449000B0F0F4C0F2F0F5C0F3F0A8ECB0F0D3D770
:1044A0006FC01AF070C01BF0020E115E000E125A9F
:1044B000135A145A20EE06F01A50D9261B50DA224D
:1044C000FE0EDE24156EFF0EDE20166EFF0EDE20C1
:1044D000176EFF0EDE20186E1550115C1650125824
:1044E0001750135818501458D8A009D0000E116E48
:1044F000000E126E000E136E000E146E120020EEEF
:1045000012F01A50D9261B50DA22DECF15F0DECF7A
:1045100016F0DECF17F0DECF18F020EE02F01A50C2
:10452000D9261B50DA22DF50196E1950056E066A23
:10453000076A086A11C009F012C00AF013C00BF034
:1045400014C00CF015ECABF015500524116E16508C
:104550000620126E17500720136E18500820146E94
:1045600012000550D96EDA6A030ED926DF50096EA3
:1045700009500E6E0F6A106A116A0550D96EDA6A18
:10458000020ED926DF50096E09500EC00BF00FC085
:104590000CF010C00DF00A6A0A100E6E0B500F6E70
:1045A0000C50106E0D50116E0550D96EDA6A010E66
:1045B000D926DF50096E09500EC00BF00FC00CF069
:1045C00010C00DF00A6A0A100E6E0B500F6E0C50E0
:1045D000106E0D50116E0550D96EDA6ADF50096EFB
:1045E00009500EC00BF00FC00CF010C00DF00A6A9D
:1045F0000A100E6E0B500F6E0C50106E0D50116E97
:104600000EC005F00FC006F010C007F011C008F092
:104610001200C20EF66E5F0EF76E010EF86E01EE1E
:10462000E2F010EE18F00900F5CFEEFFE550E15092
:10463000FAE1E60EF66E620EF76E010EF86E00EE0F
:10464000F7F010EE07F00900F5CFEEFFE550E1506E
:10465000FAE105EEA0F012EE00F0EE6AE550E1504E
:10466000FCE1E250FAE105EE00F0A00EEE6AE80689
:10467000FDE104EE00F0A00EEE6AE806FDE103EEB7
:1046800000F0A00EEE6AE806FDE102EE00F0E00E9A
:10469000EE6AE806FDE101EE00F0E20EEE6AE806E1
:1046A000FDE100EE60F0540EEE6AE806FDE15A6AA4
:1046B000596A586A576A5B905B92000100EF80F07C
:1046C000040E866E856A200E826E836A846A8B6A07
:1046D000CE0E876E6E0E886E8E0E896E8A680F0102
:1046E000216B1C6B146B296BC00E0C6F2069030EC1
:1046F000286F670E136F0E0E0B6F8E0E1B6F030E5F
:10470000276F0A6B126B1A6B1F6B096911691969A4
:104710001E69070E266FF10E086F1069F90E186FEB
:104720001D6B0F0E256F050E0E01F26F0A0E8B6FBB
:10473000140EB26F0F0EF66F0B0EEE6F130EB36FFB
:10474000090E8A6F170EB06F180EE66F110EEB6F21
:10475000030E1F6F120EEC6F020E206F100EF76F1C
:10476000090EF86F0D0E886F1200000E00019C25D7
:10477000D96EDA6A030EDA22DF6A0E0198A516D026
:10478000000E00019C25D96EDA6A030EDA220301BD
:10479000DF8201D80BD00500FA6E01017A51FD6E5F
:1047A0007B51FE6E7C51FF6EFA5012000E0198A3F1
:1047B00016D0000E00019C25D96EDA6A030EDA22AB
:1047C0000301DF8401D80BD00500FA6E0101775197
:1047D000FD6E7851FE6E7951FF6EFA501200000E98
:1047E00000019C25D96EDA6A030EDA22DF50D8B4B4
:1047F0000DD001D812000500FA6E01017451FD6E52
:104800007551FE6E7651FF6EFA50120098ECAFF0C3
:104810001200000E0001A325D96EDA6A020EDA2218
:10482000DF6A9CA415D0000EA325D96EDA6A020EA9
:10483000DA220201DF8201D80BD00500FA6E0101F5
:104840008951FD6E8A51FE6E8B51FF6EFA50120037
:104850009CA216D0000E0001A325D96EDA6A020EC2
:10486000DA220201DF8401D80BD00500FA6E0101C3
:104870008651FD6E8751FE6E8851FF6EFA50120010
:10488000000E0001A325D96EDA6A020EDA22DF508B
:10489000D8B40DD001D812000500FA6E0101835181
:1048A000FD6E8451FE6E8551FF6EFA501200A8EC29
:1048B000AFF01200066E95BA12000650040D010EFC
:1048C000F326000EF4224F0EF324F66EF30EF420BE
:1048D000F76EF86A000EF8220800F5CF94FF065034
:1048E000040D4F0EF324F66EF30EF420F76EF86A03
:1048F000000EF8220800F5CF95FF966A0650040DC9
:10490000020EF326000EF4224F0EF324F66EF30E81
:10491000F420F76EF86A000EF8220800F5CF92FF37
:104920000650040D030EF326000EF4224F0EF3245E
:10493000F66EF30EF420F76EF86A000EF822080007
:10494000F5CF05F0053A89500518EF0B0518896E6B
:10495000958A120009500A10D8B404D009500A10E0
:10496000D8A404D007502EECB1F0120020EE09F0CC
:104970000950D9260A50DA22DE50DE10D8B416D0FB
:1049800020EE09F00950D9260A50DA2210EE02F082
:104990000950E1260A50E222DE50E65CE650800A29
:1049A0000F6EDE50800A0F58D8B0120020EE02F0D1
:1049B0000950D9260A50DA22DECF0BF0DDCF0CF0F9
:1049C00009C0D9FF0AC0DAFFDECF0DF0DDCF0EF04F
:1049D0000B500D24D96E0C500E20DA6E07C0DFFF8D
:1049E00020EE02F00950D9260A50DA22DE2A000E03
:1049F000DD221200000E0B6E000E0A6E0550D96EFD
:104A0000DA6ADECFF6FFDDCFF7FF000EF86E0800A2
:104A1000F5502A0AD8A428D00550D96EDA6ADE2AC1
:104A2000000EDD220650D96EDA6A020EDF26DF5C48
:104A3000D96EDA6ADECF0AF0DECF0BF025D00A0E8F
:104A40000A02F3CF07F0F4CF08F00B02F350082668
:104A5000095007240A6E000E08200B6E0550D96E0F
:104A6000DA6ADE2A000EDD220550D96EDA6ADECF60
:104A7000F6FFDDCFF7FF000EF86E0800F550D00FFF
:104A8000096E090E0964DBD70AC005F00BC006F0F9
:104A900012006D516E11D8A405D06DC016F06EC015
:104AA00017F006D0FF0E6D25166EFF0E6E21176EE5
:104AB00081A109D012C007F0086A10C009F011C026
:104AC0000AF0AAECA4F017AE04D0000E176E000E88
:104AD000166E000E156E000E146E0CD0000E086ED1
:104AE000200E076E10C009F011C00AF0AAECA4F065
:104AF000144A152A1650145C1550800A136E17506C
:104B0000800A1358D8A0EAD7000181B109D012C099
:104B100007F0086A10C009F011C00AF0AAECA4F06E
:104B2000010E1424106E000E1520116E120011ECEF
:104B3000B1F00009D8A40AD02BD05BECB1F0120080
:104B400057ECB1F012004FECB1F0120055C10EF06D
:104B500021EE49F001D80AD00500FA6EDE50FD6E54
:104B6000DE50FE6EDE50FF6EFA501200106E116ABB
:104B70001150000AD8A4E7D71050010AD8B4E3D7DF
:104B8000030AD8B4DAD7010AD8B4DAD7070ADBD7D0
:104B9000010163915DC1D9FF5EC1DAFF5D4B5E2B00
:104BA000DF5063ECB1F001015F07D8A060075F51EF
:104BB0006011D8A402D0060E1200030E12000001EC
:104BC00081A10AD019C010F01AC011F017C012F05C
:104BD00018C013F072ECADF01CAE04D0000E1C6EC9
:104BE000000E1B6E000E1F6E000E1E6E0CD0000E0F
:104BF000086E200E076E17C009F018C00AF0AAEC64
:104C0000A4F01E4A1F2A1B501E5C1F50800A1D6EF6
:104C10001C50800A1D58D8A0EAD7000181B10AD0E3
:104C200019C010F01AC011F017C012F018C013F01C
:104C300072ECADF019C005F01AC006F0BBECAEF096
:104C40001B500524176E1C500620186E1200000E13
:104C50000A6E0D0E096E060E0B6E26ECAEF0000EFF
:104C60000A6E0E0E096E060E0B6E26ECAEF04D0EA1
:104C7000486EFB0E496EB8ECAFF0F8ECAEF00001F8
:104C8000B451055C536EB5510658546EB651075871
:104C9000556EB7510858566E56505510541004E1D1
:104CA000650E535CD8A0E9D783AE02D0010E01D0C7
:104CB000000EFF0A536E53325332835053187F0B4A
:104CC0005318836EF8ECAEF005C0B4F006C0B5F032
:104CD00007C0B6F008C0B7F0D0D7546E5450D8B45F
:104CE00010D0B10E1C6EB00E1D6EAF0E1E6E5A0EA1
:104CF0001F6E590E206E580E216EAE0E226EF3EC12
:104D0000A7F05A50E4ECAEF0FB0E486EFF0E496E71
